{
  "_format": "hh-sol-artifact-1",
  "contractName": "JavierToken",
  "sourceName": "contracts/JavierToken.sol",
  "abi": [
    {
      "inputs": [],
      "stateMutability": "nonpayable",
      "type": "constructor"
    },
    {
      "inputs": [
        {
          "internalType": "address",
          "name": "spender",
          "type": "address"
        },
        {
          "internalType": "uint256",
          "name": "allowance",
          "type": "uint256"
        },
        {
          "internalType": "uint256",
          "name": "needed",
          "type": "uint256"
        }
      ],
      "name": "ERC20InsufficientAllowance",
      "type": "error"
    },
    {
      "inputs": [
        {
          "internalType": "address",
          "name": "sender",
          "type": "address"
        },
        {
          "internalType": "uint256",
          "name": "balance",
          "type": "uint256"
        },
        {
          "internalType": "uint256",
          "name": "needed",
          "type": "uint256"
        }
      ],
      "name": "ERC20InsufficientBalance",
      "type": "error"
    },
    {
      "inputs": [
        {
          "internalType": "address",
          "name": "approver",
          "type": "address"
        }
      ],
      "name": "ERC20InvalidApprover",
      "type": "error"
    },
    {
      "inputs": [
        {
          "internalType": "address",
          "name": "receiver",
          "type": "address"
        }
      ],
      "name": "ERC20InvalidReceiver",
      "type": "error"
    },
    {
      "inputs": [
        {
          "internalType": "address",
          "name": "sender",
          "type": "address"
        }
      ],
      "name": "ERC20InvalidSender",
      "type": "error"
    },
    {
      "inputs": [
        {
          "internalType": "address",
          "name": "spender",
          "type": "address"
        }
      ],
      "name": "ERC20InvalidSpender",
      "type": "error"
    },
    {
      "anonymous": false,
      "inputs": [
        {
          "indexed": true,
          "internalType": "address",
          "name": "member",
          "type": "address"
        }
      ],
      "name": "AddNewMember",
      "type": "event"
    },
    {
      "anonymous": false,
      "inputs": [
        {
          "indexed": true,
          "internalType": "address",
          "name": "owner",
          "type": "address"
        },
        {
          "indexed": true,
          "internalType": "address",
          "name": "spender",
          "type": "address"
        },
        {
          "indexed": false,
          "internalType": "uint256",
          "name": "value",
          "type": "uint256"
        }
      ],
      "name": "Approval",
      "type": "event"
    },
    {
      "anonymous": false,
      "inputs": [
        {
          "indexed": true,
          "internalType": "address",
          "name": "player",
          "type": "address"
        },
        {
          "indexed": false,
          "internalType": "uint256",
          "name": "guess",
          "type": "uint256"
        },
        {
          "indexed": false,
          "internalType": "uint256",
          "name": "result",
          "type": "uint256"
        }
      ],
      "name": "BetOutcome",
      "type": "event"
    },
    {
      "anonymous": false,
      "inputs": [
        {
          "indexed": true,
          "internalType": "address",
          "name": "from",
          "type": "address"
        },
        {
          "indexed": true,
          "internalType": "address",
          "name": "to",
          "type": "address"
        },
        {
          "indexed": false,
          "internalType": "uint256",
          "name": "value",
          "type": "uint256"
        }
      ],
      "name": "Transfer",
      "type": "event"
    },
    {
      "inputs": [
        {
          "internalType": "address",
          "name": "owner",
          "type": "address"
        },
        {
          "internalType": "address",
          "name": "spender",
          "type": "address"
        }
      ],
      "name": "allowance",
      "outputs": [
        {
          "internalType": "uint256",
          "name": "",
          "type": "uint256"
        }
      ],
      "stateMutability": "view",
      "type": "function"
    },
    {
      "inputs": [
        {
          "internalType": "address",
          "name": "spender",
          "type": "address"
        },
        {
          "internalType": "uint256",
          "name": "value",
          "type": "uint256"
        }
      ],
      "name": "approve",
      "outputs": [
        {
          "internalType": "bool",
          "name": "",
          "type": "bool"
        }
      ],
      "stateMutability": "nonpayable",
      "type": "function"
    },
    {
      "inputs": [
        {
          "internalType": "address",
          "name": "account",
          "type": "address"
        }
      ],
      "name": "balanceOf",
      "outputs": [
        {
          "internalType": "uint256",
          "name": "",
          "type": "uint256"
        }
      ],
      "stateMutability": "view",
      "type": "function"
    },
    {
      "inputs": [],
      "name": "decimals",
      "outputs": [
        {
          "internalType": "uint8",
          "name": "",
          "type": "uint8"
        }
      ],
      "stateMutability": "view",
      "type": "function"
    },
    {
      "inputs": [
        {
          "internalType": "uint256",
          "name": "amount",
          "type": "uint256"
        }
      ],
      "name": "deposit",
      "outputs": [],
      "stateMutability": "nonpayable",
      "type": "function"
    },
    {
      "inputs": [],
      "name": "getContractFunds",
      "outputs": [
        {
          "internalType": "uint256",
          "name": "",
          "type": "uint256"
        }
      ],
      "stateMutability": "view",
      "type": "function"
    },
    {
      "inputs": [],
      "name": "getMaxRandomNumber",
      "outputs": [
        {
          "internalType": "uint256",
          "name": "",
          "type": "uint256"
        }
      ],
      "stateMutability": "view",
      "type": "function"
    },
    {
      "inputs": [],
      "name": "mintForNewMember",
      "outputs": [],
      "stateMutability": "nonpayable",
      "type": "function"
    },
    {
      "inputs": [],
      "name": "name",
      "outputs": [
        {
          "internalType": "string",
          "name": "",
          "type": "string"
        }
      ],
      "stateMutability": "view",
      "type": "function"
    },
    {
      "inputs": [
        {
          "internalType": "uint256",
          "name": "guess",
          "type": "uint256"
        },
        {
          "internalType": "uint256",
          "name": "amount",
          "type": "uint256"
        }
      ],
      "name": "playBet",
      "outputs": [],
      "stateMutability": "nonpayable",
      "type": "function"
    },
    {
      "inputs": [
        {
          "internalType": "uint256",
          "name": "number",
          "type": "uint256"
        }
      ],
      "name": "setMaxRandomNumber",
      "outputs": [],
      "stateMutability": "nonpayable",
      "type": "function"
    },
    {
      "inputs": [],
      "name": "symbol",
      "outputs": [
        {
          "internalType": "string",
          "name": "",
          "type": "string"
        }
      ],
      "stateMutability": "view",
      "type": "function"
    },
    {
      "inputs": [],
      "name": "totalSupply",
      "outputs": [
        {
          "internalType": "uint256",
          "name": "",
          "type": "uint256"
        }
      ],
      "stateMutability": "view",
      "type": "function"
    },
    {
      "inputs": [
        {
          "internalType": "address",
          "name": "to",
          "type": "address"
        },
        {
          "internalType": "uint256",
          "name": "value",
          "type": "uint256"
        }
      ],
      "name": "transfer",
      "outputs": [
        {
          "internalType": "bool",
          "name": "",
          "type": "bool"
        }
      ],
      "stateMutability": "nonpayable",
      "type": "function"
    },
    {
      "inputs": [
        {
          "internalType": "address",
          "name": "from",
          "type": "address"
        },
        {
          "internalType": "address",
          "name": "to",
          "type": "address"
        },
        {
          "internalType": "uint256",
          "name": "value",
          "type": "uint256"
        }
      ],
      "name": "transferFrom",
      "outputs": [
        {
          "internalType": "bool",
          "name": "",
          "type": "bool"
        }
      ],
      "stateMutability": "nonpayable",
      "type": "function"
    }
  ],
  "bytecode": "0x608060405260096006553480156200001657600080fd5b506040518060400160405280600b81526020017f4a6176696572546f6b656e0000000000000000000000000000000000000000008152506040518060400160405280600381526020017f4a545200000000000000000000000000000000000000000000000000000000008152508160039081620000949190620007a4565b508060049081620000a69190620007a4565b50505033600760006101000a81548173ffffffffffffffffffffffffffffffffffffffff021916908373ffffffffffffffffffffffffffffffffffffffff16021790555062000127600760009054906101000a900473ffffffffffffffffffffffffffffffffffffffff16683635c9adc5dea000006200016b60201b60201c565b62000165600760009054906101000a900473ffffffffffffffffffffffffffffffffffffffff1630681b1ae4d6e2ef500000620001f860201b60201c565b620009c2565b600073ffffffffffffffffffffffffffffffffffffffff168273ffffffffffffffffffffffffffffffffffffffff1603620001e05760006040517fec442f05000000000000000000000000000000000000000000000000000000008152600401620001d79190620008d0565b60405180910390fd5b620001f460008383620002fa60201b60201c565b5050565b600073ffffffffffffffffffffffffffffffffffffffff168373ffffffffffffffffffffffffffffffffffffffff16036200026d5760006040517f96c6fd1e000000000000000000000000000000000000000000000000000000008152600401620002649190620008d0565b60405180910390fd5b600073ffffffffffffffffffffffffffffffffffffffff168273ffffffffffffffffffffffffffffffffffffffff1603620002e25760006040517fec442f05000000000000000000000000000000000000000000000000000000008152600401620002d99190620008d0565b60405180910390fd5b620002f5838383620002fa60201b60201c565b505050565b600073ffffffffffffffffffffffffffffffffffffffff168373ffffffffffffffffffffffffffffffffffffffff1603620003505780600260008282546200034391906200091c565b9250508190555062000426565b60008060008573ffffffffffffffffffffffffffffffffffffffff1673ffffffffffffffffffffffffffffffffffffffff16815260200190815260200160002054905081811015620003df578381836040517fe450d38c000000000000000000000000000000000000000000000000000000008152600401620003d69392919062000968565b60405180910390fd5b8181036000808673ffffffffffffffffffffffffffffffffffffffff1673ffffffffffffffffffffffffffffffffffffffff16815260200190815260200160002081905550505b600073ffffffffffffffffffffffffffffffffffffffff168273ffffffffffffffffffffffffffffffffffffffff1603620004715780600260008282540392505081905550620004be565b806000808473ffffffffffffffffffffffffffffffffffffffff1673ffffffffffffffffffffffffffffffffffffffff168152602001908152602001600020600082825401925050819055505b8173ffffffffffffffffffffffffffffffffffffffff168373ffffffffffffffffffffffffffffffffffffffff167fddf252ad1be2c89b69c2b068fc378daa952ba7f163c4a11628f55a4df523b3ef836040516200051d9190620009a5565b60405180910390a3505050565b600081519050919050565b7f4e487b7100000000000000000000000000000000000000000000000000000000600052604160045260246000fd5b7f4e487b7100000000000000000000000000000000000000000000000000000000600052602260045260246000fd5b60006002820490506001821680620005ac57607f821691505b602082108103620005c257620005c162000564565b5b50919050565b60008190508160005260206000209050919050565b60006020601f8301049050919050565b600082821b905092915050565b6000600883026200062c7fffffffffffffffffffffffffffffffffffffffffffffffffffffffffffffffff82620005ed565b620006388683620005ed565b95508019841693508086168417925050509392505050565b6000819050919050565b6000819050919050565b6000620006856200067f620006798462000650565b6200065a565b62000650565b9050919050565b6000819050919050565b620006a18362000664565b620006b9620006b0826200068c565b848454620005fa565b825550505050565b600090565b620006d0620006c1565b620006dd81848462000696565b505050565b5b818110156200070557620006f9600082620006c6565b600181019050620006e3565b5050565b601f82111562000754576200071e81620005c8565b6200072984620005dd565b8101602085101562000739578190505b620007516200074885620005dd565b830182620006e2565b50505b505050565b600082821c905092915050565b6000620007796000198460080262000759565b1980831691505092915050565b600062000794838362000766565b9150826002028217905092915050565b620007af826200052a565b67ffffffffffffffff811115620007cb57620007ca62000535565b5b620007d7825462000593565b620007e482828562000709565b600060209050601f8311600181146200081c576000841562000807578287015190505b62000813858262000786565b86555062000883565b601f1984166200082c86620005c8565b60005b8281101562000856578489015182556001820191506020850194506020810190506200082f565b8683101562000876578489015162000872601f89168262000766565b8355505b6001600288020188555050505b505050505050565b600073ffffffffffffffffffffffffffffffffffffffff82169050919050565b6000620008b8826200088b565b9050919050565b620008ca81620008ab565b82525050565b6000602082019050620008e76000830184620008bf565b92915050565b7f4e487b7100000000000000000000000000000000000000000000000000000000600052601160045260246000fd5b6000620009298262000650565b9150620009368362000650565b9250828201905080821115620009515762000950620008ed565b5b92915050565b620009628162000650565b82525050565b60006060820190506200097f6000830186620008bf565b6200098e602083018562000957565b6200099d604083018462000957565b949350505050565b6000602082019050620009bc600083018462000957565b92915050565b6113ee80620009d26000396000f3fe608060405234801561001057600080fd5b50600436106100f55760003560e01c806370a0823111610097578063d0589bfd11610066578063d0589bfd14610288578063dd62ed3e146102a4578063e0cb8a81146102d4578063fc76c88c146102f2576100f5565b806370a08231146101ee57806395d89b411461021e578063a9059cbb1461023c578063b6b55f251461026c576100f5565b806323b872dd116100d357806323b872dd14610166578063313ce5671461019657806362b3dd8f146101b45780636718c984146101d2576100f5565b806306fdde03146100fa578063095ea7b31461011857806318160ddd14610148575b600080fd5b6101026102fc565b60405161010f9190610e75565b60405180910390f35b610132600480360381019061012d9190610f30565b61038e565b60405161013f9190610f8b565b60405180910390f35b6101506103b1565b60405161015d9190610fb5565b60405180910390f35b610180600480360381019061017b9190610fd0565b6103bb565b60405161018d9190610f8b565b60405180910390f35b61019e6103ea565b6040516101ab919061103f565b60405180910390f35b6101bc6103f3565b6040516101c99190610fb5565b60405180910390f35b6101ec60048036038101906101e7919061105a565b6103fd565b005b61020860048036038101906102039190611087565b610461565b6040516102159190610fb5565b60405180910390f35b6102266104a9565b6040516102339190610e75565b60405180910390f35b61025660048036038101906102519190610f30565b61053b565b6040516102639190610f8b565b60405180910390f35b6102866004803603810190610281919061105a565b61055e565b005b6102a2600480360381019061029d91906110b4565b61056c565b005b6102be60048036038101906102b991906110f4565b610679565b6040516102cb9190610fb5565b60405180910390f35b6102dc610700565b6040516102e99190610fb5565b60405180910390f35b6102fa610710565b005b60606003805461030b90611163565b80601f016020809104026020016040519081016040528092919081815260200182805461033790611163565b80156103845780601f1061035957610100808354040283529160200191610384565b820191906000526020600020905b81548152906001019060200180831161036757829003601f168201915b5050505050905090565b6000806103996107c5565b90506103a68185856107cd565b600191505092915050565b6000600254905090565b6000806103c66107c5565b90506103d38582856107df565b6103de858585610873565b60019150509392505050565b60006012905090565b6000600654905090565b600760009054906101000a900473ffffffffffffffffffffffffffffffffffffffff1673ffffffffffffffffffffffffffffffffffffffff163373ffffffffffffffffffffffffffffffffffffffff161461045757600080fd5b8060068190555050565b60008060008373ffffffffffffffffffffffffffffffffffffffff1673ffffffffffffffffffffffffffffffffffffffff168152602001908152602001600020549050919050565b6060600480546104b890611163565b80601f01602080910402602001604051908101604052809291908181526020018280546104e490611163565b80156105315780601f1061050657610100808354040283529160200191610531565b820191906000526020600020905b81548152906001019060200180831161051457829003601f168201915b5050505050905090565b6000806105466107c5565b9050610553818585610873565b600191505092915050565b610569333083610873565b50565b60088161057991906111c3565b8061058330610461565b101561058e57600080fd5b818061059933610461565b10156105a457600080fd5b6000339050600060065482426040516020016105c192919061126e565b6040516020818303038152906040528051906020012060001c6105e491906112c9565b60016105f091906112fa565b905080860361061557610610308360088861060b91906111c3565b610873565b610621565b610620823087610873565b5b8173ffffffffffffffffffffffffffffffffffffffff167f1095f1bba121ff6b9c55820c4adb67c7fb8ccc9a22428179064f1970d601f3bb878360405161066992919061132e565b60405180910390a2505050505050565b6000600160008473ffffffffffffffffffffffffffffffffffffffff1673ffffffffffffffffffffffffffffffffffffffff16815260200190815260200160002060008373ffffffffffffffffffffffffffffffffffffffff1673ffffffffffffffffffffffffffffffffffffffff16815260200190815260200160002054905092915050565b600061070b30610461565b905090565b60003390506001600560008373ffffffffffffffffffffffffffffffffffffffff1673ffffffffffffffffffffffffffffffffffffffff16815260200190815260200160002060006101000a81548160ff02191690831515021790555061077f33674563918244f40000610967565b8073ffffffffffffffffffffffffffffffffffffffff167fbf6beb69493846ba63d19b37e6e0025bbc9043785101fc6f0a6d8d8bf705c87c60405160405180910390a250565b600033905090565b6107da83838360016109e9565b505050565b60006107eb8484610679565b90507fffffffffffffffffffffffffffffffffffffffffffffffffffffffffffffffff811461086d578181101561085d578281836040517ffb8f41b200000000000000000000000000000000000000000000000000000000815260040161085493929190611366565b60405180910390fd5b61086c848484840360006109e9565b5b50505050565b600073ffffffffffffffffffffffffffffffffffffffff168373ffffffffffffffffffffffffffffffffffffffff16036108e55760006040517f96c6fd1e0000000000000000000000000000000000000000000000000000000081526004016108dc919061139d565b60405180910390fd5b600073ffffffffffffffffffffffffffffffffffffffff168273ffffffffffffffffffffffffffffffffffffffff16036109575760006040517fec442f0500000000000000000000000000000000000000000000000000000000815260040161094e919061139d565b60405180910390fd5b610962838383610bc0565b505050565b600073ffffffffffffffffffffffffffffffffffffffff168273ffffffffffffffffffffffffffffffffffffffff16036109d95760006040517fec442f050000000000000000000000000000000000000000000000000000000081526004016109d0919061139d565b60405180910390fd5b6109e560008383610bc0565b5050565b600073ffffffffffffffffffffffffffffffffffffffff168473ffffffffffffffffffffffffffffffffffffffff1603610a5b5760006040517fe602df05000000000000000000000000000000000000000000000000000000008152600401610a52919061139d565b60405180910390fd5b600073ffffffffffffffffffffffffffffffffffffffff168373ffffffffffffffffffffffffffffffffffffffff1603610acd5760006040517f94280d62000000000000000000000000000000000000000000000000000000008152600401610ac4919061139d565b60405180910390fd5b81600160008673ffffffffffffffffffffffffffffffffffffffff1673ffffffffffffffffffffffffffffffffffffffff16815260200190815260200160002060008573ffffffffffffffffffffffffffffffffffffffff1673ffffffffffffffffffffffffffffffffffffffff168152602001908152602001600020819055508015610bba578273ffffffffffffffffffffffffffffffffffffffff168473ffffffffffffffffffffffffffffffffffffffff167f8c5be1e5ebec7d5bd14f71427d1e84f3dd0314c0f7b2291e5b200ac8c7c3b92584604051610bb19190610fb5565b60405180910390a35b50505050565b600073ffffffffffffffffffffffffffffffffffffffff168373ffffffffffffffffffffffffffffffffffffffff1603610c12578060026000828254610c0691906112fa565b92505081905550610ce5565b60008060008573ffffffffffffffffffffffffffffffffffffffff1673ffffffffffffffffffffffffffffffffffffffff16815260200190815260200160002054905081811015610c9e578381836040517fe450d38c000000000000000000000000000000000000000000000000000000008152600401610c9593929190611366565b60405180910390fd5b8181036000808673ffffffffffffffffffffffffffffffffffffffff1673ffffffffffffffffffffffffffffffffffffffff16815260200190815260200160002081905550505b600073ffffffffffffffffffffffffffffffffffffffff168273ffffffffffffffffffffffffffffffffffffffff1603610d2e5780600260008282540392505081905550610d7b565b806000808473ffffffffffffffffffffffffffffffffffffffff1673ffffffffffffffffffffffffffffffffffffffff168152602001908152602001600020600082825401925050819055505b8173ffffffffffffffffffffffffffffffffffffffff168373ffffffffffffffffffffffffffffffffffffffff167fddf252ad1be2c89b69c2b068fc378daa952ba7f163c4a11628f55a4df523b3ef83604051610dd89190610fb5565b60405180910390a3505050565b600081519050919050565b600082825260208201905092915050565b60005b83811015610e1f578082015181840152602081019050610e04565b60008484015250505050565b6000601f19601f8301169050919050565b6000610e4782610de5565b610e518185610df0565b9350610e61818560208601610e01565b610e6a81610e2b565b840191505092915050565b60006020820190508181036000830152610e8f8184610e3c565b905092915050565b600080fd5b600073ffffffffffffffffffffffffffffffffffffffff82169050919050565b6000610ec782610e9c565b9050919050565b610ed781610ebc565b8114610ee257600080fd5b50565b600081359050610ef481610ece565b92915050565b6000819050919050565b610f0d81610efa565b8114610f1857600080fd5b50565b600081359050610f2a81610f04565b92915050565b60008060408385031215610f4757610f46610e97565b5b6000610f5585828601610ee5565b9250506020610f6685828601610f1b565b9150509250929050565b60008115159050919050565b610f8581610f70565b82525050565b6000602082019050610fa06000830184610f7c565b92915050565b610faf81610efa565b82525050565b6000602082019050610fca6000830184610fa6565b92915050565b600080600060608486031215610fe957610fe8610e97565b5b6000610ff786828701610ee5565b935050602061100886828701610ee5565b925050604061101986828701610f1b565b9150509250925092565b600060ff82169050919050565b61103981611023565b82525050565b60006020820190506110546000830184611030565b92915050565b6000602082840312156110705761106f610e97565b5b600061107e84828501610f1b565b91505092915050565b60006020828403121561109d5761109c610e97565b5b60006110ab84828501610ee5565b91505092915050565b600080604083850312156110cb576110ca610e97565b5b60006110d985828601610f1b565b92505060206110ea85828601610f1b565b9150509250929050565b6000806040838503121561110b5761110a610e97565b5b600061111985828601610ee5565b925050602061112a85828601610ee5565b9150509250929050565b7f4e487b7100000000000000000000000000000000000000000000000000000000600052602260045260246000fd5b6000600282049050600182168061117b57607f821691505b60208210810361118e5761118d611134565b5b50919050565b7f4e487b7100000000000000000000000000000000000000000000000000000000600052601160045260246000fd5b60006111ce82610efa565b91506111d983610efa565b92508282026111e781610efa565b915082820484148315176111fe576111fd611194565b5b5092915050565b60008160601b9050919050565b600061121d82611205565b9050919050565b600061122f82611212565b9050919050565b61124761124282610ebc565b611224565b82525050565b6000819050919050565b61126861126382610efa565b61124d565b82525050565b600061127a8285611236565b60148201915061128a8284611257565b6020820191508190509392505050565b7f4e487b7100000000000000000000000000000000000000000000000000000000600052601260045260246000fd5b60006112d482610efa565b91506112df83610efa565b9250826112ef576112ee61129a565b5b828206905092915050565b600061130582610efa565b915061131083610efa565b925082820190508082111561132857611327611194565b5b92915050565b60006040820190506113436000830185610fa6565b6113506020830184610fa6565b9392505050565b61136081610ebc565b82525050565b600060608201905061137b6000830186611357565b6113886020830185610fa6565b6113956040830184610fa6565b949350505050565b60006020820190506113b26000830184611357565b9291505056fea26469706673582212207881ed1516047b8d9f6ff295fd3bac71c652dd806c1bab3adfae52fdba9d53d964736f6c63430008180033",
  "linkReferences": {},
  "deployedLinkReferences": {}
}